:020000040800F2
:1000000008B540F20000074BC2F200001B1A062B95
:1000100000D808BD40F20003C0F20003002BF8D066
:100020009847F6E70300002008B540F2000040F2D0
:100030000003C2F20000C2F200031B1A9B1003EB84
:10004000D373591000D108BD40F20002C0F2000283
:10005000002AF8D09047F6E710B540F20004C2F24B
:100060000004237873B9FFF7CBFF40F20003C0F21E
:1000700000032BB140F2C800C0F60000AFF30080CF
:100080000123237010BD00BF08B540F20003C0F289
:1000900000034BB140F2C80040F20401C0F600007A
:1000A000C2F20001AFF3008040F20000C2F2000093
:1000B00003682BB140F20003C0F2000303B198477C
:1000C000BDE80840FFF7B0BFF8B500BFF8BC08BCFA
:1000D0009E467047F8B500BFF8BC08BC9E46704706
:0400E000890000088B
:0400E40059000008B7
:0400000508000000EF
:00000001FF
